S013000030335F5350495F546573742E7372656364
S11300000C943E000C9448000C9448000C94480056
S11300100C9448000C9448000C9448000C9448003C
S11300200C9448000C9448000C9448000C9448002C
S11300300C9448000C9448000C9448000C9448001C
S11300400C9448000C9448000C9448000C9448000C
S11300500C9448000C9448000C9448000C944800FC
S11300600C9448000C9448000C9448000C944800EC
S11300700C9448000C9448000C94480011241FBEB2
S1130080CFEFD0E1DEBFCDBF0E948A000C94850182
S11300900C940000CF93DF93CDB7DEB728970FB64B
S11300A0F894DEBF0FBECDBF98878F8319821A8262
S11300B01B821C8210C08D819E8101969E838D833C
S11300C089819A81AB81BC810196A11DB11D89836F
S11300D09A83AB83BC838F8198859C0140E050E078
S11300E086E990E0DC010E9464019B01AC018981F6
S11300F09A81AB81BC8182179307A407B507D8F214
S1130100000028960FB6F894DEBF0FBECDBFDF9176
S1130110CF910895CF93DF9300D000D000D0CDB716
S1130120DEB7CE0102960E9423014A815B816C8175
S11301307D818E810E94BE00198285E290E025E2D5
S113014030E0F90120812F7EFC01208384E690E0D9
S11301500E944A00898191E0980F99830E944D0181
S113016085E290E025E230E0F90120812061FC0184
S1130170208384E690E00E944A00DFCFCF93DF9390
S113018000D000D01F92CDB7DEB749835A836B836A
S11301907C838D8384E290E024E230E0F9012081C5
S11301A0206BFC0120838CE490E02CE430E0F90126
S11301B02081522F2C81222F30E0220F331F220F57
S11301C0331F220F331F422F40642D81222F30E032
S11301D022953295307F3227207F3227242B398194
S11301E0422F432B2B81222F30E0220F331F220F6B
S11301F0331F422B2A81222F30E0220F331F220F7C
S1130200331F220F331F342F322B29812370232BCA
S1130210252BFC0120838DE490E02DE430E0F901EE
S11302202081422F398121E0343008F420E0242B4E
S1130230FC01208381E00F900F900F900F900F909E
S1130240DF91CF910895CF93DF9300D0CDB7DEB780
S11302509A83898389819A8145E050E060E070E067
S11302600E947E0189819A81FC01108289819A8190
S1130270FC01118289819A81FC01128289819A810F
S1130280FC01138289819A8121E0FC01248300000E
S11302900F900F90DF91CF910895CF93DF931F922A
S11302A0CDB7DEB789838EE490E02981FC012083F9
S11302B000008DE490E0FC0180818823D4F781E084
S11302C00F90DF91CF9108950E946F01A59F900D2B
S11302D0B49F900DA49F800D911D11240895A29F99
S11302E0B001B39FC001A39F700D811D1124911D06
S11302F0B29F700D811D1124911D0895DC0101C070
S11103006D9341505040E0F70895F894FFCFFC
S9030000FC
