:100000000C942A000C9461000C9434000C9434007D
:100010000C9434000C9434000C9434000C94340090
:100020000C9434000C9434000C9434000C94340080
:100030000C9434000C9434000C9434000C94340070
:100040000C9434000C9434000C9434000C94340060
:100050000C94340011241FBECFE5D8E0DEBFCDBF25
:100060000E9436000C9482000C940000DF93CF9322
:10007000CDB7DEB70E944400A8E3B0E0E8E3F0E0CB
:1000800080818F5F8C93F8CFDF93CF93CDB7DEB7AE
:10009000A5E5B0E0E5E5F0E080818D7F8C93A5E5F6
:1000A000B0E0E5E5F0E080818E7F8C93ABE5B0E0D9
:1000B000EBE5F0E0808180648C937894CF91DF91C0
:1000C00008951F920F920FB60F9211248F93AF9342
:1000D000BF93EF93FF93DF93CF93CDB7DEB7ABE33F
:1000E000B0E0EBE3F0E0808180958C93CF91DF91DD
:1000F000FF91EF91BF91AF918F910F900FBE0F9035
:080100001F901895F894FFCF41
:00000001FF
