:10F80000CFEFD0E1DEBFCDBF11241FBE1DC08136BA
:10F8100010F087550895813410F087530895803390
:10F8200010F480E00895805308950F931F93062FDE
:10F830000E94077C182F802F0E94077C1295107F52
:10F84000810F1F910F9108952F923F924F925F92D7
:10F850006F927F928F929F92AF92BF92CF92DF92E0
:10F86000EF92FF920F931F93DF93CF93CDB7DEB745
:10F87000C655D0400FB6F894DEBF0FBECDBFF8948A
:10F880008BB183608BB91092800081E080938100FE
:10F890008091600088618093600086E480936000BE
:10F8A00040E050E031E106C08091600087FF02C077
:10F8B00021E003C04899F8CF20E010928500109213
:10F8C000840006C08091600087FF02C021E002C072
:10F8D000489BF8CF313130F48091840090918500BD
:10F8E000480F591F315019F0222321F321E0809154
:10F8F000600088618093600010926000213041F4C4
:10F90000109281008BB18C7F8BB9E0E0F0E009941C
:10F910009A0164E0369527956A95E1F72B963FAFFB
:10F920002EAF2B9780E593EC0197F1F7C9010E9468
:10F93000227F0E94417F0E94417F853509F70E9406
:10F94000417F8535E9F60E94417F8535C9F683E61A
:10F950000E94327F84E30E94327F85E30E94327FDF
:10F9600082E60E94327F82E30E94327F80E20E9420
:10F97000327F86E70E94327F82E30E94327F8EE2EE
:10F980000E94327F89E30E94327F88E30E94327FA7
:10F990001D8A8D89823649F08DE00E94327F8EE388
:10F9A0000E94327F81E10E94327F10E00E94417FFD
:10F9B000E5E1F0E0EC0FFD1FE10FF11D80838535DF
:10F9C000A9F3833019F488E58D8B03C01F5F8A305B
:10F9D00069F7812F90E0E4E1F0E0EC0FFD1FE80F04
:10F9E000F91F1082FC01329785E190E08C0F9D1F7A
:10F9F000E80FF91F80818D3009F4108283E10E94A5
:10FA0000327FCE0145960E94757FFD8897E6F916F4
:10FA1000E1F19F1540F0E2E6FE1671F0F5E6FF1603
:10FA200009F00AC242C02DE6F21609F43EC030E7E2
:10FA3000F31609F001C278C00F8900518E892AE0BF
:10FA4000829FC0011124080F8BE20E94327F8DE05B
:10FA50000E94327F8EE30E94327F81E10E94327FDA
:10FA600080E593EC0197F1F710E053E0000F111FD0
:10FA70005A95E1F72B968EAD9FAD2B97B8010E945A
:10FA8000827FCB010E94227F84CF8BE20E94327F53
:10FA90008DE00E94327F81E10E94327F80E593EC0D
:10FAA0000197F1F71092810030CF8F89688D0E9405
:10FAB000157C182F898D6A8D0E94157C65961FAF65
:10FAC000659764961FAE649765960EAD1FAD6597FA
:10FAD000080F111D8E89873799F48B8D6C8D0E94CC
:10FAE000157CE82E85E6F81631F4F999FECFC801A9
:10FAF0006E2D0E949E7F8D898D3611F4F801E08273
:10FB00008D89853629F4C8010E94967F182F02C07E
:10FB1000F80110818BE20E94327F8DE00E94327FDB
:10FB2000812F0E94517F35CF8BE20E94327F8DE082
:10FB30000E94327F2C961FAE2C978E89853621F439
:10FB4000F1E02C96FFAF2C9766246A94762C430143
:10FB5000442455242E961FAE1EAE2E9781E10E949E
:10FB6000327F10E00E94417FE5E1F0E0EC0FFD1FE5
:10FB7000E10FF11D80831F5F8A30A1F783E10E94AE
:10FB8000327FE4E1F0E0EC0FFD1FE10FF11D108288
:10FB90008E896F890E94157C082F888D698D0E943F
:10FBA000157C182F63968FAF639762961FAE62978E
:10FBB0008A8D6B8D0E94157C6396EEACFFAC6397CB
:10FBC000E80EF11C8C8D6D8D0E94157CB12EB00E4F
:10FBD000B80EBE0CA02FB0E09D01220F331F61961E
:10FBE0003FAF2EAF6197EEE1F0E0EC0FFD1FE20FAB
:10FBF000F31F30812F963FAF2F971596AA0FBB1F8B
:10FC0000E1E0F0E0EC0FFD1FAE0FBF1F54962C900B
:10FC10008230F1F48E8D6F8D0E94157C29968FAF06
:10FC2000299728961FAE289788A169A10E94157C64
:10FC300029962EAD3FAD2997280F311D2E963FAF47
:10FC40002EAF2E9729963FAD2997B30EB20E82C0E4
:10FC5000813021F4CC24C39401E07EC0882309F0D4
:10FC600079C08FEF68168FEF78068FEF88068FEFD9
:10FC7000980619F437018824992421E0C22ED12C4A
:10FC8000CC0EDD1EC40CD51C2E960EAD1FAD2E97CE
:10FC900094E0000F111F9A95E1F7040D151D060D54
:10FCA000171D33244DC0EEE1F0E0EC0FFD1FEE0D0B
:10FCB000FF1DAFE1B0E0AC0FBD1FAE0DBF1D8081D9
:10FCC0006C910E94157CA82EE0E2F0E0EC0FFD1F85
:10FCD000EE0DFF1D21E230E02C0F3D1FE20EF31E62
:10FCE0008081F70160810E94157C282F2C96FFAD42
:10FCF0002C97F13021F4F601A082818313C067961E
:10FD00008FAF679766961FAE669767968EAD9FAD6D
:10FD100067978A0D911D31E0F8010C01309357006F
:10FD2000E89511242A0DB20E82E090E0480E591E8B
:10FD300094E0390EE2E0F0E0CE0EDF1E0E5F1F4FC2
:10FD4000E32CFF2461962EAD3FAD6197E216F306DA
:10FD50000CF4A9CFCC2400E02F968FAD2F97622D05
:10FD60000E94157CB80E09F067C08EE20E94327FB7
:10FD70003FEF4316510411F008F001E02C968FADCF
:10FD80002C97813019F0013009F052C02E96EEAD5B
:10FD9000FFAD2E977F0100E010E084E0EE0CFF1C29
:10FDA000001F111F8A95D1F7E60CF71C081D191DBD
:10FDB0002C96FFAD2C97F130B1F4DD240EC0F999EB
:10FDC000FECF8E0D9F1DE1E0F0E0EC0FFD1FED0D6D
:10FDD000F11D60810E949E7FD3948D2D90E084154B
:10FDE000950568F31CC020E0E21628EFF20620E03B
:10FDF000020720E0120700F5F70133E030935700C7
:10FE0000E89507B600FCFDCF85E080935700E895A4
:10FE100007B600FCFDCF81E180935700E8958AE2A8
:10FE20000E94327F66246A94762C43014424552430
:10FE3000CC2009F493CE02C08DE201C08BE20E9477
:10FE4000327FA7CD24E0969587952A95E1F7909388
:10FE5000C5008093C40088E18093C10086E0809350
:10FE6000C20008951F93182F8D3019F48AE00E9464
:10FE7000327F8091C00085FFFCCF1093C6001F9198
:10FE800008958091C00087FFFCCF8091C60008953F
:10FE90008F708A3010F0895A01C0805D0E94327FD5
:10FEA00008951F93182F82958F700E94487F812F8D
:10FEB0000E94487F1F9108950F931F938C01812FFB
:10FEC00082958F700E94487F812F0E94487FC801D1
:10FED00034E0969587953A95E1F70E94487F802F08
:10FEE0000E94487F1F910F910895CF93DF93EC01FB
:10FEF00003C021960E94327F88818823D1F7DF9149
:10FF0000CF910895AA1BBB1B51E107C0AA1FBB1FBD
:10FF1000A617B70710F0A61BB70B881F991F5A9595
:10FF2000A9F780959095BC01CD010895F999FECF70
:10FF300092BD81BDF89A992780B50895262FF99929
:10FF4000FECF1FBA92BD81BD20BD0FB6F894FA9ABC
:08FF5000F99A0FBE0196089515
:040000030000F80001
:00000001FF
