S00F0000414443546573742E73726563AD
S11300000C943E000C945B000C945B000C945B001D
S11300100C945B000C945B000C945B000C945B00F0
S11300200C945B000C945B000C945B000C945B00E0
S11300300C945B000C945B000C945B000C945B00D0
S11300400C945B000C945B000C945B000C945B00C0
S11300500C945B000C945B000C945B000C945B00B0
S11300600C948C000C945B000C945B000C945B006F
S11300700C945B000C945B000C945B0011241FBE79
S1130080CFEFD0E1DEBFCDBF11E0A0E0B1E0ECE105
S1130090F2E002C005900D92AA30B107D9F721E031
S11300A0AAE0B1E001C01D92AE30B207E1F70E94B0
S11300B0B2000C940C010C940000EAE7F0E010820A
S11300C010927B00ACE7B0E01C9290816F5F692BCB
S11300D060832C9130E4839FC0011124822B8C9384
S11300E080818068808308952091780080917900D0
S11300F090E0982F8827820F911D0895ECE7F0E097
S11301009081892B8083EAE7F0E08081806280839C
S113011080818064808308951F920F920FB60F929E
S113012011242F938F939F93EF93FF9383B78E7F25
S113013083BF2091780080917900E0910A01F091C9
S11301400B0190E0982F8827820F911D9183808363
S1130150FF91EF919F918F912F910F900FBE0F9070
S11301601F90189565E081E00E945D0080E00E9488
S11301707E008FEF87B9C0E0D1E00E9474009093B5
S11301800D0180930C01823391051CF4898588B993
S113019039C0843691051CF4888588B933C0863902
S11301A091051CF48F8188B92DC0883C91051CF4FD
S11301B08E8188B927C08A3F91051CF48D8188B946
S11301C021C08C3221E092071CF48C8188B91AC0BA
S11301D08E3521E092071CF48B8188B913C08039D5
S11301E021E092071CF48A8188B90CC0823C21E08A
S11301F092071CF4898188B905C0843F914014F4A6
S1130200888188B98FEF99E628E181509040204099
S10F0210E1F700C00000B1CFF894FFCF6C
S10D021C80F24860322404F0002050
S9030000FC
