S01100004954475F4D50555F322E737265634D
S11300000C943E000C9448000C9448000C94480056
S11300100C9448000C9448000C9448000C9448003C
S11300200C9448000C9448000C9448000C9448002C
S11300300C9448000C9448000C9448000C9448001C
S11300400C9448000C9448000C9448000C9448000C
S11300500C9448000C9448000C9448000C944800FC
S11300600C9448000C9448000C9448000C944800EC
S11300700C9448000C9448000C94480011241FBEB2
S1130080CFEFD0E1DEBFCDBF0E949A000C945001A7
S11300900C940000E4E6F0E0808110821092B90034
S11300A088E48093B80084E08093BC0088B18360C6
S11300B088B908951092BC0094EA9093BC00909182
S11300C0BC0097FFFCCF9091B900987F983069F4F9
S11300D0880F682B6093BB0084E88093BC008091F8
S11300E0BC0087FFFCCF80E0089581E0089584E997
S11300F08093BC0008958093BB0084E88093BC0087
S11301008091BC0087FFFCCF80E0089584E8809351
S1130110BC008091BC0087FFFCCF8091BB00089598
S113012084EC8093BC008091BC0087FFFCCF80915D
S1130130BB0008950E944A000E94160134E0D32EA9
S113014060E088E60E945A008BE60E947B0080E013
S11301500E947B000E94770087EC90E00197F1F702
S113016000C000008DE00E9423018AE00E94230168
S113017060E088E60E945A008BE30E947B0061E005
S113018088E60E945A000E949000E82E0E94900087
S1130190F12CFE2CEE24E82A0E949000C82F0E9425
S11301A09000D0E0DC2FCC27C82B0E949000C82EF2
S11301B00E948600082F0E94770010E01C2988B155
S11301C08D2588B988E50E9423018AE30E942301D2
S11301D0C7010E942A018BE30E94230180E20E944E
S11301E0230189E50E9423018AE30E942301CE01B1
S11301F00E942A018BE30E94230180E20E942301D2
S11302008AE50E9423018AE30E942301C8010E9417
S11302102A018BE30E9423019FEF21EE84E0915099
S113022020408040E1F700C000008ACF88E180933D
S1130230C1008EE08093C20084E490E09093C500F6
S11302408093C40008959091C00095FFFCCF8093E3
S1130250C6000895CF93009769F06AE070E00E94A9
S11302603C01C82FCB010E942A0180E38C0FCF915F
S11302700C942301CF910895AA1BBB1B51E107C025
S1130280AA1FBB1FA617B70710F0A61BB70B881F22
S1130290991F5A95A9F780959095BC01CD010895B1
S10702A0F894FFCFFC
S9030000FC
