S016000049324354657374417672363434502E7372656399
S11300000C943E000C9453000C9453000C94530035
S11300100C9453000C9453000C9453000C94530010
S11300200C9453000C9453000C9453000C94530000
S11300300C9453000C9453000C9453000C945300F0
S11300400C9453000C9453000C9453000C945300E0
S11300500C9453000C9453000C9453000C945300D0
S11300600C9453000C9453000C9453000C945300C0
S11300700C9453000C9453000C94530011241FBE91
S1130080CFEFD0E1DEBFCDBF11E0A0E0B1E0E6EA02
S1130090FCE002C005900D92A431B107D9F70E948B
S11300A0DA020C9451060C940000CF93DF9300D035
S11300B000D000D0CDB7DEB719821A821B821C8211
S11300C09C01A6E9B0E00E944D03AB01BC0189810B
S11300D09A81AB81BC8184179507A607B707C8F43A
S11300E08D819E8101969E838D8389819A81AB81C6
S11300F0BC810196A11DB11D89839A83AB83BC8306
S113010089819A81AB81BC8184179507A607B707BB
S113011038F326960FB6F894DEBF0FBECDBFDF913D
S1130120CF910895CF93DF9300D000D0CDB7DEB741
S11301301A82198229813A812817390788F42B8178
S11301403C812F5F3F4F3C832B8329813A812F5F72
S11301503F4F3A83298329813A812817390778F355
S11301600F900F900F900F90DF91CF91089584EA34
S11301708093BC00ECEBF0E080818823ECF7909155
S1130180B900987F81E0983009F080E008952F92BB
S11301903F924F925F926F927F928F929F92AF9213
S11301A0BF92CF92DF92EF92FF921F93CF93DF9390
S11301B000D000D0CDB7DEB74B015C0181E089836C
S11301C084E08A8380E18B8380E48C8329013A0173
S11301D0440C551C661C771CCE0101967C0110E072
S11301E00F2EF9EBCF2ED12CF02D0F2EF8EB2F2E56
S11301F0312CF02DF701A081B0E0A30192010E94FF
S11302005C039B01AC01C501B4010E942B03DA011C
S1130210C9010897A109B1098F3F9105A105B1054D
S113022009F0A0F4F6018081812B8083F701A0817D
S1130230B0E0A30192010E945C039B01AC01C501E3
S1130240B4010E942B032850F101208388B18360FC
S113025088B9FFEFEF1AFF0A1F5F143059F681E0E7
S11302600F900F900F900F90DF91CF911F91FF90FF
S1130270EF90DF90CF90BF90AF909F908F907F9042
S11302806F905F904F903F902F900895EF92FF9260
S11302900F931F93CF93DF93F82E8B01EA010E94F3
S11302A0B700882309F447C08F2D8E7F8093BB004D
S11302B084E88093BC00ECEBF0E080818823ECF7C9
S11302C09091B900987F81E0983109F080E088230B
S11302D019F0209729F42BC094E99093BC002BC00B
S11302E0D801A8014C0F5D1F6BEB70E0ECEBF0E064
S11302F034E80F2EF9EBEF2EF12CF02D21E010E075
S11303008D91EB018883308380818823ECF7E701AA
S11303109881987F822F903509F0812F811104C034
S113032094E99093BC0007C0A417B50749F784E982
S11303308093BC0081E0DF91CF911F910F91FF90DA
S1130340EF900895EF92FF920F931F93CF93DF9353
S1130350C82F7B018A010E94B700882309F45CC07E
S11303608C2F81608093BB0084E88093BC00ECEB0D
S1130370F0E080818823ECF79091B900987F81E0C8
S1130380903409F080E0882339F0A80141505109E4
S113039039F420E030E01FC094E99093BC003CC0E5
S11303A0D70120E030E0ECEBF0E094EC69EB70E096
S11303B00BEB10E0908380818823ECF7EB018881BC
S11303C0887F803501F5E80188818D932F5F3F4F49
S11303D02417350778F384E88093BC00ECEBF0E055
S11303E080818823ECF78091B900887F883581F477
S11303F08091BB00F701E20FF31F808384E98093AF
S1130400BC0081E009C084E98093BC0080E004C0A2
S113041084E98093BC0080E0DF91CF911F910F911C
S1130420FF90EF900895169A85E090E00E94920064
S1130430169885E090E00E949200089591B19F6023
S113044091B9159892B1907F92B992B182958F70BB
S1130450982B92B90E9413020895159A81B1807F56
S113046081B9169A8AE090E00E94920080B11698B1
S11304708295807F0895CF931498159A0E942D0237
S1130480C82F0E942D0282958F70C07F8C2BCF9134
S113049008950E943B0283FB882780F90895CF9337
S11304A0DF93CAEED3E006C0219751F084E690E0D2
S11304B00E9492000E9449028111F6CF81E001C09E
S11304C080E0DF91CF910895CF93C82F149A1598A7
S11304D00E941E028C2F8295807F0E941E020E9421
S11304E04F02CF910895CF93DF93EC018881882345
S11304F031F021960E94640289918111FBCFDF9132
S1130500CF910895CF93C82F149815980E941E0276
S11305108C2F8295807F0E941E020E944F02CF91F1
S1130520089581E00E94820282E090E00E945500DA
S1130530089582B1807F82B981B18F6081B91498A6
S11305400C9A15980D9A16980E9A8FE090E00E94D6
S1130550550080E30E941E0285E090E00E94550051
S113056080E30E941E0281E090E00E94550080E337
S11305700E941E0281E090E00E94550080E20E94E9
S11305801E0285E090E00E94550088E20E948202EB
S11305908CE00E9482020E9491020895813029F425
S11305A080E8860F0E948202089580EC860F0E94E4
S11305B082020895CF93DF93CDB7DEB7C856D10931
S11305C00FB6F894DEBF0FBECDBF82E0898300E092
S11305D020EA36E841E050E060E074E284EF90E025
S11305E00E94C7000E9499020E9491020F2EF0E01F
S11305F0EF2EF1E0FF2EF02D8E010B5F1F4F60E018
S113060081E00E94CE0241E050E0BE016F5F7F4F67
S113061080EA0E94460142E050E0BE016E5F7F4FD7
S113062080EA0E94A2018A811F928F938B811F927C
S11306308F938C811F928F93FF92EF921F930F934E
S11306400E946703C8010E9473020FB6F894DEBFCC
S11306500FBECDBFD4CFA1E21A2EAA1BBB1BFD0136
S11306600DC0AA1FBB1FEE1FFF1FA217B307E4078D
S1130670F50720F0A21BB30BE40BF50B661F771FE5
S1130680881F991F1A9469F76095709580959095C5
S11306909B01AC01BD01CF010895A29FB001B39F9E
S11306A0C001A39F700D811D1124911DB29F700D77
S11306B0811D1124911D08950E944D03A59F900D45
S11306C0B49F900DA49F800D911D11240895AEE058
S11306D0B0E0EDE6F3E00C9428060D891E8986E06F
S11306E08C831A8309838FEF9FE79E838D83AE01EA
S11306F0475E5F4F6F89788DCE0101960E94890312
S1130700EF81F885E00FF11F10822E96E4E00C943F
S11307104406ABE0B0E0EFE8F3E00C941A066C0199
S11307207B018A01FC0117821682838181FFCCC17F
S1130730CE0101963C01F6019381F70193FD859169
S113074093FF81917F01882309F4BAC1853239F47A
S113075093FD859193FF81917F01853229F4B60140
S113076090E00E948005E7CF912C212C312CFFE1F1
S1130770F315D8F08B3279F038F4803279F0833283
S1130780A1F4232D20611DC08D3261F0803369F402
S1130790232D216016C0832D8260382EE32DE46062
S11307A03E2E2AC0F32DF8601DC037FC2DC020ED6D
S11307B0280F2A3040F08E32B9F436FC81C1232D43
S11307C02064322E19C036FE06C08AE0989E200DA1
S11307D01124922E11C0EAE02E9E200D1124222E07
S11307E0F32DF0623F2E08C08C3621F4832D8068EF
S11307F0382E02C0883641F4F70193FD859193FFAA
S113080081917F018111B3CF982F9F7D95549330AF
S113081028F40C5F1F4F9FE399830DC0833631F09A
S1130820833771F0833509F059C021C0F801808104
S113083089830E5F1F4F88248394912C530113C026
S11308402801F2E04F0E511CF801A080B18036FE61
S113085003C0692D70E002C06FEF7FEFC5010E94F5
S113086075054C018201F32DFF773F2E16C0280138
S113087022E0420E511CF801A080B18036FE03C074
S1130880692D70E002C06FEF7FEFC5010E946A0519
S11308904C01F32DF0683F2E820133FC1BC0822DE6
S11308A090E088169906B0F4B60180E290E00E94C8
S11308B080052A94F4CFF50137FC859137FE8191A8
S11308C05F01B60190E00E94800521102A9421E086
S11308D0821A91088114910471F7E8C0843611F0EA
S11308E0893641F5F80137FE07C060817181828144
S11308F093810C5F1F4F08C060817181072E000C2B
S1130900880B990B0E5F1F4FF32DFF763F2E97FF39
S113091009C090958095709561957F4F8F4F9F4F3B
S1130920F0683F2E2AE030E0A3010E94BC05882E27
S1130930861845C0853731F4232D2F7EB22E2AE048
S113094030E025C0932D997FB92E8F36C1F018F46D
S1130950883579F0B5C0803719F0883721F0B0C0F8
S1130960E92FE061BE2EB4FE0DC0FB2DF460BF2E56
S113097009C034FE0AC0292F2660B22E06C028E022
S113098030E005C020E130E002C020E132E0F801AF
S1130990B7FE07C060817181828193810C5F1F4F14
S11309A006C06081718180E090E00E5F1F4FA3015B
S11309B00E94BC05882E8618FB2DFF773F2E36FE3D
S11309C00DC0232D2E7FA22E891458F434FE0BC0A3
S11309D032FC09C0832D8E7EA82E05C0B82CA32C12
S11309E003C0B82C01C0B92CA4FE0FC0FE01E80D51
S11309F0F11D8081803321F49A2D997EA92E09C09E
S1130A00A2FE06C0B394B39404C08A2D867809F07C
S1130A10B394A3FC11C0A0FE06C0B21488F4280C41
S1130A20922C9B180EC0B21460F4B60180E290E0E0
S1130A300E948005B394F7CFB21418F42B1802C0A7
S1130A40982C212CA4FE10C0B60180E390E00E94F3
S1130A508005A2FE17C0A1FC03C088E790E002C095
S1130A6088E590E0B6010CC08A2D867859F0A1FE85
S1130A7002C08BE201C080E2A7FC8DE2B60190E0E7
S1130A800E948005891438F4B60180E390E00E9446
S1130A9080059A94F7CF8A94F301E80DF11D8081C3
S1130AA0B60190E00E9480058110F5CF222009F460
S1130AB042CEB60180E290E00E9480052A94F6CFEF
S1130AC0F6018681978102C08FEF9FEF2B96E2E1BA
S1130AD00C943606FC010590615070400110D8F763
S1130AE0809590958E0F9F1F0895FC016150704072
S1130AF001900110D8F7809590958E0F9F1F08954F
S1130B000F931F93CF93DF93FB01238121FD03C038
S1130B108FEF9FEF2CC022FF16C04681578124819E
S1130B2035814217530744F4A081B1819D012F5FA1
S1130B303F4F318320838C93268137812F5F3F4F32
S1130B403783268314C08B01EC01FB010084F185FB
S1130B50E02D0995892BE1F6D80116968D919C918B
S1130B601797019617969C938E931697CE01DF9153
S1130B70CF911F910F910895FA01AA27283051F1BE
S1130B80203181F1E8946F936E7F6E5F7F4F8F4FBA
S1130B909F4FAF4FB1E03ED0B4E03CD0670F781F19
S1130BA0891F9A1FA11D680F791F8A1F911DA11DFE
S1130BB06A0F711D811D911DA11D20D009F4689437
S1130BC03F912AE0269F11243019305D3193DEF6DF
S1130BD0CF010895462F4770405D4193B3E00FD095
S1130BE0C9F7F6CF462F4F70405D4A3318F0495D80
S1130BF031FD4052419302D0A9F7EACFB4E0A69563
S1130C009795879577956795BA95C9F70097610584
S1130C10710508959B01AC010A2E069457954795DA
S1130C2037952795BA95C9F7620F731F841F951FCF
S1130C30A01D08952F923F924F925F926F927F92E0
S1130C408F929F92AF92BF92CF92DF92EF92FF92D8
S1130C500F931F93CF93DF93CDB7DEB7CA1BDB0B84
S1130C600FB6F894DEBF0FBECDBF09942A88398829
S1130C7048885F846E847D848C849B84AA84B98430
S1130C80C884DF80EE80FD800C811B81AA81B9813C
S1130C90CE0FD11D0FB6F894DEBF0FBECDBFED0150
S1090CA00895F894FFCF53
S1130CA625303278203A2025303278203A202530F3
S1070CB6327800008C
S9030000FC
