:100000000C942A000C9459000C943C000C943C0075
:100010000C943C000C943C000C943C000C94680044
:100020000C943C000C943C000C943C000C943C0060
:100030000C943C000C943C000C943C000C943C0050
:100040000C943C000C943C000C943C000C943C0040
:100050000C943C0011241FBECFE5D8E0DEBFCDBF1D
:1000600010E0A0E6B0E001C01D92A436B107E1F7B0
:100070000E94A8000C94B1000C94000085B7826027
:1000800085BF85B78E7F85BF8BB780648BBF089592
:100090008FE690E09BBD8ABD8FB58C7F8FBD8EB5FE
:1000A00088608EBD8EB58F7E8EBD89B7806189BF19
:1000B00008951F920F920FB60F9211248F938EB551
:1000C00081608EBD8F910F900FBE0F901F9018957D
:1000D0001F920F920FB60F9211242F933F938F937D
:1000E0009F930BB606FE07C08BB78F7B8BBF8CEB45
:1000F00091E09BBD8ABD80B390E0847090702091A8
:10010000610030916200822B932B90936200809368
:100110006100209160002E3049F481E080936300FB
:10012000809360008BB780648BBF09C0880F991FD4
:1001300090936200809361002F5F209360009F91F5
:100140008F913F912F910F900FBE0F901F90189598
:100150000E943E000E94480078948BB38F5F8BBB57
:06016000FCCFF894FFCF74
:00000001FF
