:100000000C942A000C943C000C943C000C943C0092
:100010000C943C000C943C000C943C000C943C0070
:100020000C943C000C943C000C9447000C943C0055
:100030000C943C000C943C000C943C000C943C0050
:100040000C943C000C943C000C943C000C943C0040
:100050000C943C0011241FBECFE5D8E0DEBFCDBF1D
:1000600010E0A0E6B0E001C01D92A836B107E1F7AC
:100070000E943E000C949A000C9400008AE083BF1A
:100080008DE78CBF89B7826089BF7894FFCF1F92BC
:100090000F920FB60F9211242F938F939F938091FD
:1000A00060009091610001969093610080936000E0
:1000B0008091600090916100885E934099F58091F5
:1000C00062009091630001969093630080936200B8
:1000D0001092610010926000809162009091630024
:1000E000CC9769F48091640090916500019690939B
:1000F000650080936400109263001092620080910A
:10010000640090916500CC9769F4809166009091AD
:1001100067000196909367008093660010926500D7
:10012000109264009F918F912F910F900FBE0F90AE
:080130001F901895F894FFCF11
:00000001FF
