:100000000C942A000C9447000C9447000C94470071
:100010000C9447000C9447000C9447000C94470044
:100020000C9447000C9447000C9447000C948600F5
:100030000C9447000C9447000C9447000C94470024
:100040000C9447000C9447000C9447000C94470014
:100050000C94470011241FBECFE5D8E0DEBFCDBF12
:1000600010E0A0E6B0E0EEE7F1E002C005900D92EE
:10007000A036B107D9F710E0A0E6B0E001C01D92AC
:10008000A036B107E1F70E9478000C94BD000C94F3
:100090000000DF93CF93CDB7DEB7AAE3B0E0EAE389
:1000A000F0E0808181608C93A3E5B0E0E3E5F0E0CF
:1000B000808181608C93A3E5B0E0E3E5F0E080818E
:1000C0008D7F8C93A3E5B0E0E3E5F0E080818B7F4A
:1000D0008C93E2E5F0E08CE98083A9E5B0E0E9E506
:1000E000F0E0808181608C937894CF91DF910895C6
:1000F000DF93CF93CDB7DEB70E944900A2E3B0E013
:10010000E2E3F0E080818F5F8C93F8CF1F920F9233
:100110000FB60F9211248F93AF93BF93EF93FF937A
:10012000DF93CF930F92CDB7DEB7EBE3F0E08081A2
:10013000817089838981882341F0ABE3B0E0EBE3F0
:10014000F0E080818E7F8C9307C0ABE3B0E0EBE3FF
:10015000F0E0808181608C93E2E5F0E08CE98083BF
:100160000F90CF91DF91FF91EF91BF91AF918F9160
:0E0170000F900FBE0F901F901895F894FFCFC0
:00000001FF
